{
  "_format": "hh-sol-artifact-1",
  "contractName": "PredictionMarket",
  "sourceName": "contracts/PredictionMarket.sol",
  "abi": [
    {
      "inputs": [
        {
          "internalType": "address",
          "name": "_token",
          "type": "address"
        }
      ],
      "stateMutability": "nonpayable",
      "type": "constructor"
    },
    {
      "inputs": [
        {
          "internalType": "address",
          "name": "owner",
          "type": "address"
        }
      ],
      "name": "OwnableInvalidOwner",
      "type": "error"
    },
    {
      "inputs": [
        {
          "internalType": "address",
          "name": "account",
          "type": "address"
        }
      ],
      "name": "OwnableUnauthorizedAccount",
      "type": "error"
    },
    {
      "inputs": [],
      "name": "ReentrancyGuardReentrantCall",
      "type": "error"
    },
    {
      "anonymous": false,
      "inputs": [
        {
          "indexed": true,
          "internalType": "uint256",
          "name": "marketId",
          "type": "uint256"
        },
        {
          "indexed": false,
          "internalType": "string",
          "name": "question",
          "type": "string"
        },
        {
          "indexed": false,
          "internalType": "string",
          "name": "optionA",
          "type": "string"
        },
        {
          "indexed": false,
          "internalType": "string",
          "name": "optionB",
          "type": "string"
        },
        {
          "indexed": false,
          "internalType": "uint256",
          "name": "endTime",
          "type": "uint256"
        }
      ],
      "name": "MarketCreated",
      "type": "event"
    },
    {
      "anonymous": false,
      "inputs": [
        {
          "indexed": true,
          "internalType": "uint256",
          "name": "marketId",
          "type": "uint256"
        },
        {
          "indexed": false,
          "internalType": "uint8",
          "name": "outcome",
          "type": "uint8"
        }
      ],
      "name": "MarketResolved",
      "type": "event"
    },
    {
      "anonymous": false,
      "inputs": [
        {
          "indexed": true,
          "internalType": "address",
          "name": "previousOwner",
          "type": "address"
        },
        {
          "indexed": true,
          "internalType": "address",
          "name": "newOwner",
          "type": "address"
        }
      ],
      "name": "OwnershipTransferred",
      "type": "event"
    },
    {
      "anonymous": false,
      "inputs": [
        {
          "indexed": true,
          "internalType": "uint256",
          "name": "marketId",
          "type": "uint256"
        },
        {
          "indexed": true,
          "internalType": "address",
          "name": "user",
          "type": "address"
        },
        {
          "indexed": false,
          "internalType": "uint256",
          "name": "amount",
          "type": "uint256"
        }
      ],
      "name": "RefundClaimed",
      "type": "event"
    },
    {
      "anonymous": false,
      "inputs": [
        {
          "indexed": true,
          "internalType": "uint256",
          "name": "marketId",
          "type": "uint256"
        },
        {
          "indexed": true,
          "internalType": "address",
          "name": "buyer",
          "type": "address"
        },
        {
          "indexed": false,
          "internalType": "bool",
          "name": "isOptionA",
          "type": "bool"
        },
        {
          "indexed": false,
          "internalType": "uint256",
          "name": "amount",
          "type": "uint256"
        }
      ],
      "name": "SharesPurchased",
      "type": "event"
    },
    {
      "anonymous": false,
      "inputs": [
        {
          "indexed": true,
          "internalType": "uint256",
          "name": "marketId",
          "type": "uint256"
        },
        {
          "indexed": true,
          "internalType": "address",
          "name": "winner",
          "type": "address"
        },
        {
          "indexed": false,
          "internalType": "uint256",
          "name": "amount",
          "type": "uint256"
        }
      ],
      "name": "WinningsClaimed",
      "type": "event"
    },
    {
      "inputs": [],
      "name": "ADMIN_WALLET",
      "outputs": [
        {
          "internalType": "address",
          "name": "",
          "type": "address"
        }
      ],
      "stateMutability": "view",
      "type": "function"
    },
    {
      "inputs": [],
      "name": "PROTOCOL_FEE_BPS",
      "outputs": [
        {
          "internalType": "uint256",
          "name": "",
          "type": "uint256"
        }
      ],
      "stateMutability": "view",
      "type": "function"
    },
    {
      "inputs": [
        {
          "internalType": "uint256",
          "name": "_marketId",
          "type": "uint256"
        },
        {
          "internalType": "bool",
          "name": "_isOptionA",
          "type": "bool"
        },
        {
          "internalType": "uint256",
          "name": "_amount",
          "type": "uint256"
        }
      ],
      "name": "buyShares",
      "outputs": [],
      "stateMutability": "nonpayable",
      "type": "function"
    },
    {
      "inputs": [
        {
          "internalType": "uint256",
          "name": "_marketId",
          "type": "uint256"
        }
      ],
      "name": "claimRefund",
      "outputs": [],
      "stateMutability": "nonpayable",
      "type": "function"
    },
    {
      "inputs": [
        {
          "internalType": "uint256",
          "name": "_marketId",
          "type": "uint256"
        }
      ],
      "name": "claimWinnings",
      "outputs": [],
      "stateMutability": "nonpayable",
      "type": "function"
    },
    {
      "inputs": [
        {
          "internalType": "string",
          "name": "_question",
          "type": "string"
        },
        {
          "internalType": "string",
          "name": "_optionA",
          "type": "string"
        },
        {
          "internalType": "string",
          "name": "_optionB",
          "type": "string"
        },
        {
          "internalType": "uint256",
          "name": "_endTime",
          "type": "uint256"
        }
      ],
      "name": "createMarket",
      "outputs": [],
      "stateMutability": "nonpayable",
      "type": "function"
    },
    {
      "inputs": [
        {
          "internalType": "uint256",
          "name": "_marketId",
          "type": "uint256"
        }
      ],
      "name": "getMarketInfo",
      "outputs": [
        {
          "internalType": "string",
          "name": "",
          "type": "string"
        },
        {
          "internalType": "string",
          "name": "",
          "type": "string"
        },
        {
          "internalType": "string",
          "name": "",
          "type": "string"
        },
        {
          "internalType": "uint256",
          "name": "",
          "type": "uint256"
        },
        {
          "internalType": "uint8",
          "name": "",
          "type": "uint8"
        },
        {
          "internalType": "uint256",
          "name": "",
          "type": "uint256"
        },
        {
          "internalType": "uint256",
          "name": "",
          "type": "uint256"
        },
        {
          "internalType": "bool",
          "name": "",
          "type": "bool"
        }
      ],
      "stateMutability": "view",
      "type": "function"
    },
    {
      "inputs": [
        {
          "internalType": "uint256",
          "name": "_marketId",
          "type": "uint256"
        },
        {
          "internalType": "address",
          "name": "_user",
          "type": "address"
        }
      ],
      "name": "getSharesBalance",
      "outputs": [
        {
          "internalType": "uint256",
          "name": "",
          "type": "uint256"
        },
        {
          "internalType": "uint256",
          "name": "",
          "type": "uint256"
        }
      ],
      "stateMutability": "view",
      "type": "function"
    },
    {
      "inputs": [],
      "name": "marketCount",
      "outputs": [
        {
          "internalType": "uint256",
          "name": "",
          "type": "uint256"
        }
      ],
      "stateMutability": "view",
      "type": "function"
    },
    {
      "inputs": [
        {
          "internalType": "uint256",
          "name": "",
          "type": "uint256"
        }
      ],
      "name": "markets",
      "outputs": [
        {
          "internalType": "string",
          "name": "question",
          "type": "string"
        },
        {
          "internalType": "string",
          "name": "optionA",
          "type": "string"
        },
        {
          "internalType": "string",
          "name": "optionB",
          "type": "string"
        },
        {
          "internalType": "uint256",
          "name": "endTime",
          "type": "uint256"
        },
        {
          "internalType": "uint8",
          "name": "outcome",
          "type": "uint8"
        },
        {
          "internalType": "uint256",
          "name": "totalOptionAShares",
          "type": "uint256"
        },
        {
          "internalType": "uint256",
          "name": "totalOptionBShares",
          "type": "uint256"
        },
        {
          "internalType": "bool",
          "name": "resolved",
          "type": "bool"
        }
      ],
      "stateMutability": "view",
      "type": "function"
    },
    {
      "inputs": [],
      "name": "owner",
      "outputs": [
        {
          "internalType": "address",
          "name": "",
          "type": "address"
        }
      ],
      "stateMutability": "view",
      "type": "function"
    },
    {
      "inputs": [],
      "name": "renounceOwnership",
      "outputs": [],
      "stateMutability": "nonpayable",
      "type": "function"
    },
    {
      "inputs": [
        {
          "internalType": "uint256",
          "name": "_marketId",
          "type": "uint256"
        },
        {
          "internalType": "uint8",
          "name": "_outcome",
          "type": "uint8"
        }
      ],
      "name": "resolveMarket",
      "outputs": [],
      "stateMutability": "nonpayable",
      "type": "function"
    },
    {
      "inputs": [
        {
          "internalType": "uint256",
          "name": "",
          "type": "uint256"
        },
        {
          "internalType": "address",
          "name": "",
          "type": "address"
        },
        {
          "internalType": "uint256",
          "name": "",
          "type": "uint256"
        }
      ],
      "name": "shares",
      "outputs": [
        {
          "internalType": "uint256",
          "name": "",
          "type": "uint256"
        }
      ],
      "stateMutability": "view",
      "type": "function"
    },
    {
      "inputs": [],
      "name": "token",
      "outputs": [
        {
          "internalType": "contract IERC20",
          "name": "",
          "type": "address"
        }
      ],
      "stateMutability": "view",
      "type": "function"
    },
    {
      "inputs": [
        {
          "internalType": "address",
          "name": "newOwner",
          "type": "address"
        }
      ],
      "name": "transferOwnership",
      "outputs": [],
      "stateMutability": "nonpayable",
      "type": "function"
    }
  ],
  "bytecode": "0x60806040523480156200001157600080fd5b5060405162001bbc38038062001bbc8339810160408190526200003491620000e1565b33806200005b57604051631e4fbdf760e01b81526000600482015260240160405180910390fd5b620000668162000091565b5060018055600480546001600160a01b0319166001600160a01b039290921691909117905562000113565b600080546001600160a01b038381166001600160a01b0319831681178455604051919092169283917f8be0079c531659141344cd1fd0a4f28419497f9722a3daafe3b4186f6b6457e09190a35050565b600060208284031215620000f457600080fd5b81516001600160a01b03811681146200010c57600080fd5b9392505050565b611a9980620001236000396000f3fe608060405234801561001057600080fd5b50600436106101005760003560e01c80639794131611610097578063df55406e11610066578063df55406e1461025b578063ec9790821461026e578063f2fde38b14610277578063fc0c546a1461028a57600080fd5b80639794131614610203578063b1283e7714610224578063be37822814610237578063c2cd4a071461024057600080fd5b8063715018a6116100d3578063715018a61461017057806376e00406146101785780637f1a10da1461018b5780638da5cb5b146101de57600080fd5b806339b46372146101055780633ec791931461011a5780635b7baf641461014a578063677bd9ff1461015d575b600080fd5b6101186101133660046114fd565b61029d565b005b61012d610128366004611535565b610545565b604051610141989796959493929190611594565b60405180910390f35b610118610158366004611535565b6107c4565b61011861016b366004611535565b610a5a565b610118610f0a565b6101186101863660046116a4565b610f1e565b6101c9610199366004611750565b60009182526005602090815260408084206001600160a01b03939093168452919052902080546001909101549091565b60408051928352602083019190915201610141565b6000546001600160a01b03165b6040516001600160a01b039091168152602001610141565b61021661021136600461177c565b6110ad565b604051908152602001610141565b61012d610232366004611535565b6110df565b6102166103e881565b6101eb73bd01d1d9c9f7475641092a6387ffe9f07237a2e381565b6101186102693660046117b1565b6112be565b61021660035481565b6101186102853660046117e7565b61140d565b6004546101eb906001600160a01b031681565b6102a5611448565b6000838152600260205260409020600781015460ff16156103025760405162461bcd60e51b815260206004820152601260248201527113585c9ad95d081a5cc81c995cdbdb1d995960721b60448201526064015b60405180910390fd5b806003015442106103485760405162461bcd60e51b815260206004820152601060248201526f13585c9ad95d081a185cc8195b99195960821b60448201526064016102f9565b600082116103985760405162461bcd60e51b815260206004820152601d60248201527f416d6f756e74206d7573742062652067726561746572207468616e203000000060448201526064016102f9565b600480546040516323b872dd60e01b81523392810192909252306024830152604482018490526001600160a01b0316906323b872dd906064016020604051808303816000875af11580156103f0573d6000803e3d6000fd5b505050506040513d601f19601f820116820180604052508101906104149190611809565b6104585760405162461bcd60e51b8152602060048201526015602482015274151bdad95b881d1c985b9cd9995c8819985a5b1959605a1b60448201526064016102f9565b82156104ab5781816005016000828254610472919061183c565b90915550506000848152600560209081526040808320338452909152812080548492906104a090849061183c565b909155506104f79050565b818160060160008282546104bf919061183c565b909155505060008481526005602090815260408083203384529091529020829060010160008282546104f1919061183c565b90915550505b60408051841515815260208101849052339186917fb3a1ddef05fa52ff8a462662e00f5fd54a3b35e85417cafcaa671fb30434bd11910160405180910390a35061054060018055565b505050565b6060806060600080600080600080600260008b8152602001908152602001600020604051806101000160405290816000820180546105829061186b565b80601f01602080910402602001604051908101604052809291908181526020018280546105ae9061186b565b80156105fb5780601f106105d0576101008083540402835291602001916105fb565b820191906000526020600020905b8154815290600101906020018083116105de57829003601f168201915b505050505081526020016001820180546106149061186b565b80601f01602080910402602001604051908101604052809291908181526020018280546106409061186b565b801561068d5780601f106106625761010080835404028352916020019161068d565b820191906000526020600020905b81548152906001019060200180831161067057829003601f168201915b505050505081526020016002820180546106a69061186b565b80601f01602080910402602001604051908101604052809291908181526020018280546106d29061186b565b801561071f5780601f106106f45761010080835404028352916020019161071f565b820191906000526020600020905b81548152906001019060200180831161070257829003601f168201915b50505050508152602001600382015481526020016004820160009054906101000a900460ff1660ff1660ff16815260200160058201548152602001600682015481526020016007820160009054906101000a900460ff1615151515815250509050806000015181602001518260400151836060015184608001518560a001518660c001518760e001519850985098509850985098509850985050919395975091939597565b6107cc611448565b6000818152600260205260409020600781015460ff166108245760405162461bcd60e51b815260206004820152601360248201527213585c9ad95d081b9bdd081c995cdbdb1d9959606a1b60448201526064016102f9565b600481015460ff1660031461087b5760405162461bcd60e51b815260206004820152601d60248201527f4d61726b6574206e6f74207265736f6c76656420617320726566756e6400000060448201526064016102f9565b60008281526005602090815260408083203384529091528082208151808301928390529160029082845b8154815260200190600101908083116108a557505050505090506000816001600281106108d4576108d4611855565b602002015182516108e5919061183c565b90506000811161092d5760405162461bcd60e51b8152602060048201526013602482015272139bc81cda185c995cc81d1bc81c99599d5b99606a1b60448201526064016102f9565b600084815260056020908152604080832033808552818452828520858155818652919093526001019290925560048054925163a9059cbb60e01b815290810191909152602481018390526001600160a01b039091169063a9059cbb906044016020604051808303816000875af11580156109ab573d6000803e3d6000fd5b505050506040513d601f19601f820116820180604052508101906109cf9190611809565b610a145760405162461bcd60e51b81526020600482015260166024820152751499599d5b99081d1c985b9cd9995c8819985a5b195960521b60448201526064016102f9565b604051818152339085907ff3f402280ef0a7905e124aa621b65eaeb2725c343e8b36d398ed78c29daf285c9060200160405180910390a3505050610a5760018055565b50565b610a62611448565b6000818152600260205260409020600781015460ff16610aba5760405162461bcd60e51b815260206004820152601360248201527213585c9ad95d081b9bdd081c995cdbdb1d9959606a1b60448201526064016102f9565b600481015460ff16600003610b0a5760405162461bcd60e51b815260206004820152601660248201527513585c9ad95d081bdd5d18dbdb59481b9bdd081cd95d60521b60448201526064016102f9565b600481015460ff16600303610b6d5760405162461bcd60e51b8152602060048201526024808201527f55736520636c61696d526566756e64282920666f7220726566756e64206d61726044820152636b65747360e01b60648201526084016102f9565b60008281526005602090815260408083203384529091528082208151808301928390529160029082845b815481526020019060010190808311610b9757505050600485015492935060009260ff166001149150610bd09050576020820151610bd3565b81515b905060008111610c195760405162461bcd60e51b81526020600482015260116024820152704e6f2077696e6e696e672073686172657360781b60448201526064016102f9565b600483015460009060ff16600114610c35578360060154610c3b565b83600501545b905060008111610c8d5760405162461bcd60e51b815260206004820152601c60248201527f4e6f2073686172657320666f722077696e6e696e67206f7074696f6e0000000060448201526064016102f9565b600084600601548560050154610ca3919061183c565b9050600082610cb285846118a5565b610cbc91906118bc565b90506000612710610ccf6103e8846118a5565b610cd991906118bc565b90506000610ce782846118de565b600489015490915060ff16600103610d18576000898152600560209081526040808320338452909152812055610d36565b60008981526005602090815260408083203384529091528120600101555b6004805460405163a9059cbb60e01b81523392810192909252602482018390526001600160a01b03169063a9059cbb906044016020604051808303816000875af1158015610d88573d6000803e3d6000fd5b505050506040513d601f19601f82011682018060405250810190610dac9190611809565b610df05760405162461bcd60e51b8152602060048201526015602482015274151bdad95b881d1c985b9cd9995c8819985a5b1959605a1b60448201526064016102f9565b8115610ec2576004805460405163a9059cbb60e01b815273bd01d1d9c9f7475641092a6387ffe9f07237a2e392810192909252602482018490526001600160a01b03169063a9059cbb906044016020604051808303816000875af1158015610e5c573d6000803e3d6000fd5b505050506040513d601f19601f82011682018060405250810190610e809190611809565b610ec25760405162461bcd60e51b8152602060048201526013602482015272119959481d1c985b9cd9995c8819985a5b1959606a1b60448201526064016102f9565b60405181815233908a907f5380cf6fe903b40c6d5a9e0dfbca2f3a423f0a21520b4d5947ed5169bdba946d9060200160405180910390a35050505050505050610a5760018055565b610f12611472565b610f1c600061149f565b565b610f26611472565b428111610f755760405162461bcd60e51b815260206004820152601e60248201527f456e642074696d65206d75737420626520696e2074686520667574757265000060448201526064016102f9565b604080516101008101825285815260208082018690528183018590526060820184905260006080830181905260a0830181905260c0830181905260e08301819052600354815260029091529190912081518190610fd2908261193f565b5060208201516001820190610fe7908261193f565b5060408201516002820190610ffc908261193f565b506060820151600380830191909155608083015160048301805460ff90921660ff1992831617905560a0840151600584015560c0840151600684015560e090930151600790920180549215159290931691909117909155546040517fa2d123850430ad736c7d9b724e8f4ac57a15f478145540d7d4f9e01af14147f69061108a9087908790879087906119ff565b60405180910390a2600380549060006110a283611a4a565b919050555050505050565b600560205282600052604060002060205281600052604060002081600281106110d557600080fd5b0154925083915050565b6002602052600090815260409020805481906110fa9061186b565b80601f01602080910402602001604051908101604052809291908181526020018280546111269061186b565b80156111735780601f1061114857610100808354040283529160200191611173565b820191906000526020600020905b81548152906001019060200180831161115657829003601f168201915b5050505050908060010180546111889061186b565b80601f01602080910402602001604051908101604052809291908181526020018280546111b49061186b565b80156112015780601f106111d657610100808354040283529160200191611201565b820191906000526020600020905b8154815290600101906020018083116111e457829003601f168201915b5050505050908060020180546112169061186b565b80601f01602080910402602001604051908101604052809291908181526020018280546112429061186b565b801561128f5780601f106112645761010080835404028352916020019161128f565b820191906000526020600020905b81548152906001019060200180831161127257829003601f168201915b50505060038401546004850154600586015460068701546007909701549596929560ff92831695509093501688565b6112c6611472565b6000828152600260205260409020600781015460ff16156113295760405162461bcd60e51b815260206004820152601760248201527f4d61726b657420616c7265616479207265736f6c76656400000000000000000060448201526064016102f9565b8160ff166001148061133e57508160ff166002145b8061134c57508160ff166003145b6113b05760405162461bcd60e51b815260206004820152602f60248201527f496e76616c6964206f7574636f6d653a20313d4f7074696f6e412c20323d4f7060448201526e1d1a5bdb908b080ccf5499599d5b99608a1b60648201526084016102f9565b60048101805460ff841660ff199182168117909255600783018054909116600117905560405190815283907f739f283563fb51ab6b89ee95d937b2e63a6cfcb83c385dbebb629f9d97bd43e69060200160405180910390a2505050565b611415611472565b6001600160a01b03811661143f57604051631e4fbdf760e01b8152600060048201526024016102f9565b610a578161149f565b60026001540361146b57604051633ee5aeb560e01b815260040160405180910390fd5b6002600155565b6000546001600160a01b03163314610f1c5760405163118cdaa760e01b81523360048201526024016102f9565b600080546001600160a01b038381166001600160a01b0319831681178455604051919092169283917f8be0079c531659141344cd1fd0a4f28419497f9722a3daafe3b4186f6b6457e09190a35050565b8015158114610a5757600080fd5b60008060006060848603121561151257600080fd5b833592506020840135611524816114ef565b929592945050506040919091013590565b60006020828403121561154757600080fd5b5035919050565b6000815180845260005b8181101561157457602081850181015186830182015201611558565b506000602082860101526020601f19601f83011685010191505092915050565b60006101008083526115a88184018c61154e565b905082810360208401526115bc818b61154e565b905082810360408401526115d0818a61154e565b6060840198909852505060ff94909416608085015260a084019290925260c0830152151560e0909101529392505050565b634e487b7160e01b600052604160045260246000fd5b600082601f83011261162857600080fd5b813567ffffffffffffffff8082111561164357611643611601565b604051601f8301601f19908116603f0116810190828211818310171561166b5761166b611601565b8160405283815286602085880101111561168457600080fd5b836020870160208301376000602085830101528094505050505092915050565b600080600080608085870312156116ba57600080fd5b843567ffffffffffffffff808211156116d257600080fd5b6116de88838901611617565b955060208701359150808211156116f457600080fd5b61170088838901611617565b9450604087013591508082111561171657600080fd5b5061172387828801611617565b949793965093946060013593505050565b80356001600160a01b038116811461174b57600080fd5b919050565b6000806040838503121561176357600080fd5b8235915061177360208401611734565b90509250929050565b60008060006060848603121561179157600080fd5b833592506117a160208501611734565b9150604084013590509250925092565b600080604083850312156117c457600080fd5b82359150602083013560ff811681146117dc57600080fd5b809150509250929050565b6000602082840312156117f957600080fd5b61180282611734565b9392505050565b60006020828403121561181b57600080fd5b8151611802816114ef565b634e487b7160e01b600052601160045260246000fd5b8082018082111561184f5761184f611826565b92915050565b634e487b7160e01b600052603260045260246000fd5b600181811c9082168061187f57607f821691505b60208210810361189f57634e487b7160e01b600052602260045260246000fd5b50919050565b808202811582820484141761184f5761184f611826565b6000826118d957634e487b7160e01b600052601260045260246000fd5b500490565b8181038181111561184f5761184f611826565b601f82111561054057600081815260208120601f850160051c810160208610156119185750805b601f850160051c820191505b8181101561193757828155600101611924565b505050505050565b815167ffffffffffffffff81111561195957611959611601565b61196d81611967845461186b565b846118f1565b602080601f8311600181146119a2576000841561198a5750858301515b600019600386901b1c1916600185901b178555611937565b600085815260208120601f198616915b828110156119d1578886015182559484019460019091019084016119b2565b50858210156119ef5787850151600019600388901b60f8161c191681555b5050505050600190811b01905550565b608081526000611a12608083018761154e565b8281036020840152611a24818761154e565b90508281036040840152611a38818661154e565b91505082606083015295945050505050565b600060018201611a5c57611a5c611826565b506001019056fea2646970667358221220ff1fa9895786aa352739d0c492d6d4aa65df83c446254a56f1297a01de8ca81264736f6c63430008140033",
  "linkReferences": {},
  "deployedLinkReferences": {}
}