{
  "_format": "hh-sol-artifact-1",
  "contractName": "PredictionMarket",
  "sourceName": "contracts/PredictionMarket.sol",
  "abi": [
    {
      "inputs": [
        {
          "internalType": "address",
          "name": "_token",
          "type": "address"
        }
      ],
      "stateMutability": "nonpayable",
      "type": "constructor"
    },
    {
      "inputs": [
        {
          "internalType": "address",
          "name": "owner",
          "type": "address"
        }
      ],
      "name": "OwnableInvalidOwner",
      "type": "error"
    },
    {
      "inputs": [
        {
          "internalType": "address",
          "name": "account",
          "type": "address"
        }
      ],
      "name": "OwnableUnauthorizedAccount",
      "type": "error"
    },
    {
      "anonymous": false,
      "inputs": [
        {
          "indexed": true,
          "internalType": "uint256",
          "name": "marketId",
          "type": "uint256"
        },
        {
          "indexed": false,
          "internalType": "string",
          "name": "question",
          "type": "string"
        },
        {
          "indexed": false,
          "internalType": "string",
          "name": "optionA",
          "type": "string"
        },
        {
          "indexed": false,
          "internalType": "string",
          "name": "optionB",
          "type": "string"
        },
        {
          "indexed": false,
          "internalType": "uint256",
          "name": "endTime",
          "type": "uint256"
        }
      ],
      "name": "MarketCreated",
      "type": "event"
    },
    {
      "anonymous": false,
      "inputs": [
        {
          "indexed": true,
          "internalType": "uint256",
          "name": "marketId",
          "type": "uint256"
        },
        {
          "indexed": false,
          "internalType": "uint8",
          "name": "outcome",
          "type": "uint8"
        }
      ],
      "name": "MarketResolved",
      "type": "event"
    },
    {
      "anonymous": false,
      "inputs": [
        {
          "indexed": true,
          "internalType": "address",
          "name": "previousOwner",
          "type": "address"
        },
        {
          "indexed": true,
          "internalType": "address",
          "name": "newOwner",
          "type": "address"
        }
      ],
      "name": "OwnershipTransferred",
      "type": "event"
    },
    {
      "anonymous": false,
      "inputs": [
        {
          "indexed": true,
          "internalType": "uint256",
          "name": "marketId",
          "type": "uint256"
        },
        {
          "indexed": true,
          "internalType": "address",
          "name": "buyer",
          "type": "address"
        },
        {
          "indexed": false,
          "internalType": "bool",
          "name": "isOptionA",
          "type": "bool"
        },
        {
          "indexed": false,
          "internalType": "uint256",
          "name": "amount",
          "type": "uint256"
        }
      ],
      "name": "SharesPurchased",
      "type": "event"
    },
    {
      "anonymous": false,
      "inputs": [
        {
          "indexed": true,
          "internalType": "uint256",
          "name": "marketId",
          "type": "uint256"
        },
        {
          "indexed": true,
          "internalType": "address",
          "name": "winner",
          "type": "address"
        },
        {
          "indexed": false,
          "internalType": "uint256",
          "name": "amount",
          "type": "uint256"
        }
      ],
      "name": "WinningsClaimed",
      "type": "event"
    },
    {
      "inputs": [
        {
          "internalType": "uint256",
          "name": "_marketId",
          "type": "uint256"
        },
        {
          "internalType": "bool",
          "name": "_isOptionA",
          "type": "bool"
        },
        {
          "internalType": "uint256",
          "name": "_amount",
          "type": "uint256"
        }
      ],
      "name": "buyShares",
      "outputs": [],
      "stateMutability": "nonpayable",
      "type": "function"
    },
    {
      "inputs": [
        {
          "internalType": "uint256",
          "name": "_marketId",
          "type": "uint256"
        }
      ],
      "name": "claimWinnings",
      "outputs": [],
      "stateMutability": "nonpayable",
      "type": "function"
    },
    {
      "inputs": [
        {
          "internalType": "string",
          "name": "_question",
          "type": "string"
        },
        {
          "internalType": "string",
          "name": "_optionA",
          "type": "string"
        },
        {
          "internalType": "string",
          "name": "_optionB",
          "type": "string"
        },
        {
          "internalType": "uint256",
          "name": "_endTime",
          "type": "uint256"
        }
      ],
      "name": "createMarket",
      "outputs": [],
      "stateMutability": "nonpayable",
      "type": "function"
    },
    {
      "inputs": [
        {
          "internalType": "uint256",
          "name": "_marketId",
          "type": "uint256"
        }
      ],
      "name": "getMarketInfo",
      "outputs": [
        {
          "internalType": "string",
          "name": "",
          "type": "string"
        },
        {
          "internalType": "string",
          "name": "",
          "type": "string"
        },
        {
          "internalType": "string",
          "name": "",
          "type": "string"
        },
        {
          "internalType": "uint256",
          "name": "",
          "type": "uint256"
        },
        {
          "internalType": "uint8",
          "name": "",
          "type": "uint8"
        },
        {
          "internalType": "uint256",
          "name": "",
          "type": "uint256"
        },
        {
          "internalType": "uint256",
          "name": "",
          "type": "uint256"
        },
        {
          "internalType": "bool",
          "name": "",
          "type": "bool"
        }
      ],
      "stateMutability": "view",
      "type": "function"
    },
    {
      "inputs": [
        {
          "internalType": "uint256",
          "name": "_marketId",
          "type": "uint256"
        },
        {
          "internalType": "address",
          "name": "_user",
          "type": "address"
        }
      ],
      "name": "getSharesBalance",
      "outputs": [
        {
          "internalType": "uint256",
          "name": "",
          "type": "uint256"
        },
        {
          "internalType": "uint256",
          "name": "",
          "type": "uint256"
        }
      ],
      "stateMutability": "view",
      "type": "function"
    },
    {
      "inputs": [],
      "name": "marketCount",
      "outputs": [
        {
          "internalType": "uint256",
          "name": "",
          "type": "uint256"
        }
      ],
      "stateMutability": "view",
      "type": "function"
    },
    {
      "inputs": [
        {
          "internalType": "uint256",
          "name": "",
          "type": "uint256"
        }
      ],
      "name": "markets",
      "outputs": [
        {
          "internalType": "string",
          "name": "question",
          "type": "string"
        },
        {
          "internalType": "string",
          "name": "optionA",
          "type": "string"
        },
        {
          "internalType": "string",
          "name": "optionB",
          "type": "string"
        },
        {
          "internalType": "uint256",
          "name": "endTime",
          "type": "uint256"
        },
        {
          "internalType": "uint8",
          "name": "outcome",
          "type": "uint8"
        },
        {
          "internalType": "uint256",
          "name": "totalOptionAShares",
          "type": "uint256"
        },
        {
          "internalType": "uint256",
          "name": "totalOptionBShares",
          "type": "uint256"
        },
        {
          "internalType": "bool",
          "name": "resolved",
          "type": "bool"
        }
      ],
      "stateMutability": "view",
      "type": "function"
    },
    {
      "inputs": [],
      "name": "owner",
      "outputs": [
        {
          "internalType": "address",
          "name": "",
          "type": "address"
        }
      ],
      "stateMutability": "view",
      "type": "function"
    },
    {
      "inputs": [],
      "name": "renounceOwnership",
      "outputs": [],
      "stateMutability": "nonpayable",
      "type": "function"
    },
    {
      "inputs": [
        {
          "internalType": "uint256",
          "name": "_marketId",
          "type": "uint256"
        },
        {
          "internalType": "uint8",
          "name": "_outcome",
          "type": "uint8"
        }
      ],
      "name": "resolveMarket",
      "outputs": [],
      "stateMutability": "nonpayable",
      "type": "function"
    },
    {
      "inputs": [
        {
          "internalType": "uint256",
          "name": "",
          "type": "uint256"
        },
        {
          "internalType": "address",
          "name": "",
          "type": "address"
        },
        {
          "internalType": "uint256",
          "name": "",
          "type": "uint256"
        }
      ],
      "name": "shares",
      "outputs": [
        {
          "internalType": "uint256",
          "name": "",
          "type": "uint256"
        }
      ],
      "stateMutability": "view",
      "type": "function"
    },
    {
      "inputs": [],
      "name": "token",
      "outputs": [
        {
          "internalType": "contract IERC20",
          "name": "",
          "type": "address"
        }
      ],
      "stateMutability": "view",
      "type": "function"
    },
    {
      "inputs": [
        {
          "internalType": "address",
          "name": "newOwner",
          "type": "address"
        }
      ],
      "name": "transferOwnership",
      "outputs": [],
      "stateMutability": "nonpayable",
      "type": "function"
    }
  ],
  "bytecode": "0x608060405234801561001057600080fd5b5060405161165238038061165283398101604081905261002f916100d4565b338061005557604051631e4fbdf760e01b81526000600482015260240160405180910390fd5b61005e81610084565b50600380546001600160a01b0319166001600160a01b0392909216919091179055610104565b600080546001600160a01b038381166001600160a01b0319831681178455604051919092169283917f8be0079c531659141344cd1fd0a4f28419497f9722a3daafe3b4186f6b6457e09190a35050565b6000602082840312156100e657600080fd5b81516001600160a01b03811681146100fd57600080fd5b9392505050565b61153f806101136000396000f3fe608060405234801561001057600080fd5b50600436106100cf5760003560e01c80638da5cb5b1161008c578063df55406e11610066578063df55406e146101f3578063ec97908214610206578063f2fde38b1461020f578063fc0c546a1461022257600080fd5b80638da5cb5b1461019a57806397941316146101bf578063b1283e77146101e057600080fd5b806339b46372146100d45780633ec79193146100e9578063677bd9ff14610119578063715018a61461012c57806376e00406146101345780637f1a10da14610147575b600080fd5b6100e76100e2366004610fcb565b610235565b005b6100fc6100f7366004611003565b6104cb565b604051610110989796959493929190611062565b60405180910390f35b6100e7610127366004611003565b61074a565b6100e7610a39565b6100e7610142366004611172565b610a4d565b61018561015536600461121e565b60009182526004602090815260408084206001600160a01b03939093168452919052902080546001909101549091565b60408051928352602083019190915201610110565b6000546001600160a01b03165b6040516001600160a01b039091168152602001610110565b6101d26101cd36600461124a565b610bd6565b604051908152602001610110565b6100fc6101ee366004611003565b610c08565b6100e761020136600461127f565b610de7565b6101d260025481565b6100e761021d3660046112b5565b610f02565b6003546101a7906001600160a01b031681565b6000838152600160205260409020600781015460ff16156102925760405162461bcd60e51b815260206004820152601260248201527113585c9ad95d081a5cc81c995cdbdb1d995960721b60448201526064015b60405180910390fd5b806003015442106102d85760405162461bcd60e51b815260206004820152601060248201526f13585c9ad95d081a185cc8195b99195960821b6044820152606401610289565b600082116103285760405162461bcd60e51b815260206004820152601d60248201527f416d6f756e74206d7573742062652067726561746572207468616e20300000006044820152606401610289565b6003546040516323b872dd60e01b8152336004820152306024820152604481018490526001600160a01b03909116906323b872dd906064016020604051808303816000875af115801561037f573d6000803e3d6000fd5b505050506040513d601f19601f820116820180604052508101906103a391906112d7565b6103e75760405162461bcd60e51b8152602060048201526015602482015274151bdad95b881d1c985b9cd9995c8819985a5b1959605a1b6044820152606401610289565b821561043a5781816005016000828254610401919061130a565b909155505060008481526004602090815260408083203384529091528120805484929061042f90849061130a565b909155506104869050565b8181600601600082825461044e919061130a565b90915550506000848152600460209081526040808320338452909152902082906001016000828254610480919061130a565b90915550505b60408051841515815260208101849052339186917fb3a1ddef05fa52ff8a462662e00f5fd54a3b35e85417cafcaa671fb30434bd11910160405180910390a350505050565b6060806060600080600080600080600160008b81526020019081526020016000206040518061010001604052908160008201805461050890611323565b80601f016020809104026020016040519081016040528092919081815260200182805461053490611323565b80156105815780601f1061055657610100808354040283529160200191610581565b820191906000526020600020905b81548152906001019060200180831161056457829003601f168201915b5050505050815260200160018201805461059a90611323565b80601f01602080910402602001604051908101604052809291908181526020018280546105c690611323565b80156106135780601f106105e857610100808354040283529160200191610613565b820191906000526020600020905b8154815290600101906020018083116105f657829003601f168201915b5050505050815260200160028201805461062c90611323565b80601f016020809104026020016040519081016040528092919081815260200182805461065890611323565b80156106a55780601f1061067a576101008083540402835291602001916106a5565b820191906000526020600020905b81548152906001019060200180831161068857829003601f168201915b50505050508152602001600382015481526020016004820160009054906101000a900460ff1660ff1660ff16815260200160058201548152602001600682015481526020016007820160009054906101000a900460ff1615151515815250509050806000015181602001518260400151836060015184608001518560a001518660c001518760e001519850985098509850985098509850985050919395975091939597565b6000818152600160205260409020600781015460ff166107a25760405162461bcd60e51b815260206004820152601360248201527213585c9ad95d081b9bdd081c995cdbdb1d9959606a1b6044820152606401610289565b600481015460ff166000036107f25760405162461bcd60e51b815260206004820152601660248201527513585c9ad95d081bdd5d18dbdb59481b9bdd081cd95d60521b6044820152606401610289565b60008281526004602090815260408083203384529091528082208151808301928390529160029082845b81548152602001906001019080831161081c57505050600485015492935060009260ff1660011491506108559050576020820151610858565b81515b90506000811161089e5760405162461bcd60e51b81526020600482015260116024820152704e6f2077696e6e696e672073686172657360781b6044820152606401610289565b600483015460009060ff166001146108ba5783600601546108c0565b83600501545b90506000846006015485600501546108d8919061130a565b90506000826108e7858461135d565b6108f19190611374565b600487015490915060ff16600103610922576000878152600460209081526040808320338452909152812055610940565b60008781526004602090815260408083203384529091528120600101555b60035460405163a9059cbb60e01b8152336004820152602481018390526001600160a01b039091169063a9059cbb906044016020604051808303816000875af1158015610991573d6000803e3d6000fd5b505050506040513d601f19601f820116820180604052508101906109b591906112d7565b6109f95760405162461bcd60e51b8152602060048201526015602482015274151bdad95b881d1c985b9cd9995c8819985a5b1959605a1b6044820152606401610289565b604051818152339088907f5380cf6fe903b40c6d5a9e0dfbca2f3a423f0a21520b4d5947ed5169bdba946d9060200160405180910390a350505050505050565b610a41610f40565b610a4b6000610f6d565b565b610a55610f40565b428111610aa45760405162461bcd60e51b815260206004820152601e60248201527f456e642074696d65206d75737420626520696e207468652066757475726500006044820152606401610289565b604080516101008101825285815260208082018690528183018590526060820184905260006080830181905260a0830181905260c0830181905260e08301819052600254815260019091529190912081518190610b0190826113e5565b5060208201516001820190610b1690826113e5565b5060408201516002820190610b2b90826113e5565b5060608201516003820155608082015160048201805460ff90921660ff1992831617905560a0830151600583015560c0830151600683015560e09092015160079091018054911515919092161790556002546040517fa2d123850430ad736c7d9b724e8f4ac57a15f478145540d7d4f9e01af14147f690610bb39087908790879087906114a5565b60405180910390a260028054906000610bcb836114f0565b919050555050505050565b60046020528260005260406000206020528160005260406000208160028110610bfe57600080fd5b0154925083915050565b600160205260009081526040902080548190610c2390611323565b80601f0160208091040260200160405190810160405280929190818152602001828054610c4f90611323565b8015610c9c5780601f10610c7157610100808354040283529160200191610c9c565b820191906000526020600020905b815481529060010190602001808311610c7f57829003601f168201915b505050505090806001018054610cb190611323565b80601f0160208091040260200160405190810160405280929190818152602001828054610cdd90611323565b8015610d2a5780601f10610cff57610100808354040283529160200191610d2a565b820191906000526020600020905b815481529060010190602001808311610d0d57829003601f168201915b505050505090806002018054610d3f90611323565b80601f0160208091040260200160405190810160405280929190818152602001828054610d6b90611323565b8015610db85780601f10610d8d57610100808354040283529160200191610db8565b820191906000526020600020905b815481529060010190602001808311610d9b57829003601f168201915b50505060038401546004850154600586015460068701546007909701549596929560ff92831695509093501688565b610def610f40565b6000828152600160205260409020600781015460ff1615610e525760405162461bcd60e51b815260206004820152601760248201527f4d61726b657420616c7265616479207265736f6c7665640000000000000000006044820152606401610289565b8160ff1660011480610e6757508160ff166002145b610ea55760405162461bcd60e51b815260206004820152600f60248201526e496e76616c6964206f7574636f6d6560881b6044820152606401610289565b60048101805460ff841660ff199182168117909255600783018054909116600117905560405190815283907f739f283563fb51ab6b89ee95d937b2e63a6cfcb83c385dbebb629f9d97bd43e69060200160405180910390a2505050565b610f0a610f40565b6001600160a01b038116610f3457604051631e4fbdf760e01b815260006004820152602401610289565b610f3d81610f6d565b50565b6000546001600160a01b03163314610a4b5760405163118cdaa760e01b8152336004820152602401610289565b600080546001600160a01b038381166001600160a01b0319831681178455604051919092169283917f8be0079c531659141344cd1fd0a4f28419497f9722a3daafe3b4186f6b6457e09190a35050565b8015158114610f3d57600080fd5b600080600060608486031215610fe057600080fd5b833592506020840135610ff281610fbd565b929592945050506040919091013590565b60006020828403121561101557600080fd5b5035919050565b6000815180845260005b8181101561104257602081850181015186830182015201611026565b506000602082860101526020601f19601f83011685010191505092915050565b60006101008083526110768184018c61101c565b9050828103602084015261108a818b61101c565b9050828103604084015261109e818a61101c565b6060840198909852505060ff94909416608085015260a084019290925260c0830152151560e0909101529392505050565b634e487b7160e01b600052604160045260246000fd5b600082601f8301126110f657600080fd5b813567ffffffffffffffff80821115611111576111116110cf565b604051601f8301601f19908116603f01168101908282118183101715611139576111396110cf565b8160405283815286602085880101111561115257600080fd5b836020870160208301376000602085830101528094505050505092915050565b6000806000806080858703121561118857600080fd5b843567ffffffffffffffff808211156111a057600080fd5b6111ac888389016110e5565b955060208701359150808211156111c257600080fd5b6111ce888389016110e5565b945060408701359150808211156111e457600080fd5b506111f1878288016110e5565b949793965093946060013593505050565b80356001600160a01b038116811461121957600080fd5b919050565b6000806040838503121561123157600080fd5b8235915061124160208401611202565b90509250929050565b60008060006060848603121561125f57600080fd5b8335925061126f60208501611202565b9150604084013590509250925092565b6000806040838503121561129257600080fd5b82359150602083013560ff811681146112aa57600080fd5b809150509250929050565b6000602082840312156112c757600080fd5b6112d082611202565b9392505050565b6000602082840312156112e957600080fd5b81516112d081610fbd565b634e487b7160e01b600052601160045260246000fd5b8082018082111561131d5761131d6112f4565b92915050565b600181811c9082168061133757607f821691505b60208210810361135757634e487b7160e01b600052602260045260246000fd5b50919050565b808202811582820484141761131d5761131d6112f4565b60008261139157634e487b7160e01b600052601260045260246000fd5b500490565b601f8211156113e057600081815260208120601f850160051c810160208610156113bd5750805b601f850160051c820191505b818110156113dc578281556001016113c9565b5050505b505050565b815167ffffffffffffffff8111156113ff576113ff6110cf565b6114138161140d8454611323565b84611396565b602080601f83116001811461144857600084156114305750858301515b600019600386901b1c1916600185901b1785556113dc565b600085815260208120601f198616915b8281101561147757888601518255948401946001909101908401611458565b50858210156114955787850151600019600388901b60f8161c191681555b5050505050600190811b01905550565b6080815260006114b8608083018761101c565b82810360208401526114ca818761101c565b905082810360408401526114de818661101c565b91505082606083015295945050505050565b600060018201611502576115026112f4565b506001019056fea2646970667358221220e8221897ea16775faa58f6118fde8f6270c3232ae9079ad111cb000fae2d9f2d64736f6c63430008140033",
  "linkReferences": {},
  "deployedLinkReferences": {}
}