{
  "_format": "hh-sol-artifact-1",
  "contractName": "PredictionMarket",
  "sourceName": "contracts/PredictionMarket.sol",
  "abi": [
    {
      "inputs": [
        {
          "internalType": "address",
          "name": "_token",
          "type": "address"
        }
      ],
      "stateMutability": "nonpayable",
      "type": "constructor"
    },
    {
      "inputs": [
        {
          "internalType": "address",
          "name": "owner",
          "type": "address"
        }
      ],
      "name": "OwnableInvalidOwner",
      "type": "error"
    },
    {
      "inputs": [
        {
          "internalType": "address",
          "name": "account",
          "type": "address"
        }
      ],
      "name": "OwnableUnauthorizedAccount",
      "type": "error"
    },
    {
      "anonymous": false,
      "inputs": [
        {
          "indexed": true,
          "internalType": "uint256",
          "name": "marketId",
          "type": "uint256"
        },
        {
          "indexed": false,
          "internalType": "string",
          "name": "question",
          "type": "string"
        },
        {
          "indexed": false,
          "internalType": "string",
          "name": "optionA",
          "type": "string"
        },
        {
          "indexed": false,
          "internalType": "string",
          "name": "optionB",
          "type": "string"
        },
        {
          "indexed": false,
          "internalType": "uint256",
          "name": "endTime",
          "type": "uint256"
        }
      ],
      "name": "MarketCreated",
      "type": "event"
    },
    {
      "anonymous": false,
      "inputs": [
        {
          "indexed": true,
          "internalType": "uint256",
          "name": "marketId",
          "type": "uint256"
        },
        {
          "indexed": false,
          "internalType": "uint8",
          "name": "outcome",
          "type": "uint8"
        }
      ],
      "name": "MarketResolved",
      "type": "event"
    },
    {
      "anonymous": false,
      "inputs": [
        {
          "indexed": true,
          "internalType": "address",
          "name": "previousOwner",
          "type": "address"
        },
        {
          "indexed": true,
          "internalType": "address",
          "name": "newOwner",
          "type": "address"
        }
      ],
      "name": "OwnershipTransferred",
      "type": "event"
    },
    {
      "anonymous": false,
      "inputs": [
        {
          "indexed": true,
          "internalType": "uint256",
          "name": "marketId",
          "type": "uint256"
        },
        {
          "indexed": true,
          "internalType": "address",
          "name": "buyer",
          "type": "address"
        },
        {
          "indexed": false,
          "internalType": "bool",
          "name": "isOptionA",
          "type": "bool"
        },
        {
          "indexed": false,
          "internalType": "uint256",
          "name": "amount",
          "type": "uint256"
        }
      ],
      "name": "SharesPurchased",
      "type": "event"
    },
    {
      "anonymous": false,
      "inputs": [
        {
          "indexed": true,
          "internalType": "uint256",
          "name": "marketId",
          "type": "uint256"
        },
        {
          "indexed": true,
          "internalType": "address",
          "name": "winner",
          "type": "address"
        },
        {
          "indexed": false,
          "internalType": "uint256",
          "name": "amount",
          "type": "uint256"
        }
      ],
      "name": "WinningsClaimed",
      "type": "event"
    },
    {
      "inputs": [],
      "name": "ADMIN_WALLET",
      "outputs": [
        {
          "internalType": "address",
          "name": "",
          "type": "address"
        }
      ],
      "stateMutability": "view",
      "type": "function"
    },
    {
      "inputs": [],
      "name": "PROTOCOL_FEE_BPS",
      "outputs": [
        {
          "internalType": "uint256",
          "name": "",
          "type": "uint256"
        }
      ],
      "stateMutability": "view",
      "type": "function"
    },
    {
      "inputs": [
        {
          "internalType": "uint256",
          "name": "_marketId",
          "type": "uint256"
        },
        {
          "internalType": "bool",
          "name": "_isOptionA",
          "type": "bool"
        },
        {
          "internalType": "uint256",
          "name": "_amount",
          "type": "uint256"
        }
      ],
      "name": "buyShares",
      "outputs": [],
      "stateMutability": "nonpayable",
      "type": "function"
    },
    {
      "inputs": [
        {
          "internalType": "uint256",
          "name": "_marketId",
          "type": "uint256"
        }
      ],
      "name": "claimWinnings",
      "outputs": [],
      "stateMutability": "nonpayable",
      "type": "function"
    },
    {
      "inputs": [
        {
          "internalType": "string",
          "name": "_question",
          "type": "string"
        },
        {
          "internalType": "string",
          "name": "_optionA",
          "type": "string"
        },
        {
          "internalType": "string",
          "name": "_optionB",
          "type": "string"
        },
        {
          "internalType": "uint256",
          "name": "_endTime",
          "type": "uint256"
        }
      ],
      "name": "createMarket",
      "outputs": [],
      "stateMutability": "nonpayable",
      "type": "function"
    },
    {
      "inputs": [
        {
          "internalType": "uint256",
          "name": "_marketId",
          "type": "uint256"
        }
      ],
      "name": "getMarketInfo",
      "outputs": [
        {
          "internalType": "string",
          "name": "",
          "type": "string"
        },
        {
          "internalType": "string",
          "name": "",
          "type": "string"
        },
        {
          "internalType": "string",
          "name": "",
          "type": "string"
        },
        {
          "internalType": "uint256",
          "name": "",
          "type": "uint256"
        },
        {
          "internalType": "uint8",
          "name": "",
          "type": "uint8"
        },
        {
          "internalType": "uint256",
          "name": "",
          "type": "uint256"
        },
        {
          "internalType": "uint256",
          "name": "",
          "type": "uint256"
        },
        {
          "internalType": "bool",
          "name": "",
          "type": "bool"
        }
      ],
      "stateMutability": "view",
      "type": "function"
    },
    {
      "inputs": [
        {
          "internalType": "uint256",
          "name": "_marketId",
          "type": "uint256"
        },
        {
          "internalType": "address",
          "name": "_user",
          "type": "address"
        }
      ],
      "name": "getSharesBalance",
      "outputs": [
        {
          "internalType": "uint256",
          "name": "",
          "type": "uint256"
        },
        {
          "internalType": "uint256",
          "name": "",
          "type": "uint256"
        }
      ],
      "stateMutability": "view",
      "type": "function"
    },
    {
      "inputs": [],
      "name": "marketCount",
      "outputs": [
        {
          "internalType": "uint256",
          "name": "",
          "type": "uint256"
        }
      ],
      "stateMutability": "view",
      "type": "function"
    },
    {
      "inputs": [
        {
          "internalType": "uint256",
          "name": "",
          "type": "uint256"
        }
      ],
      "name": "markets",
      "outputs": [
        {
          "internalType": "string",
          "name": "question",
          "type": "string"
        },
        {
          "internalType": "string",
          "name": "optionA",
          "type": "string"
        },
        {
          "internalType": "string",
          "name": "optionB",
          "type": "string"
        },
        {
          "internalType": "uint256",
          "name": "endTime",
          "type": "uint256"
        },
        {
          "internalType": "uint8",
          "name": "outcome",
          "type": "uint8"
        },
        {
          "internalType": "uint256",
          "name": "totalOptionAShares",
          "type": "uint256"
        },
        {
          "internalType": "uint256",
          "name": "totalOptionBShares",
          "type": "uint256"
        },
        {
          "internalType": "bool",
          "name": "resolved",
          "type": "bool"
        }
      ],
      "stateMutability": "view",
      "type": "function"
    },
    {
      "inputs": [],
      "name": "owner",
      "outputs": [
        {
          "internalType": "address",
          "name": "",
          "type": "address"
        }
      ],
      "stateMutability": "view",
      "type": "function"
    },
    {
      "inputs": [],
      "name": "renounceOwnership",
      "outputs": [],
      "stateMutability": "nonpayable",
      "type": "function"
    },
    {
      "inputs": [
        {
          "internalType": "uint256",
          "name": "_marketId",
          "type": "uint256"
        },
        {
          "internalType": "uint8",
          "name": "_outcome",
          "type": "uint8"
        }
      ],
      "name": "resolveMarket",
      "outputs": [],
      "stateMutability": "nonpayable",
      "type": "function"
    },
    {
      "inputs": [
        {
          "internalType": "uint256",
          "name": "",
          "type": "uint256"
        },
        {
          "internalType": "address",
          "name": "",
          "type": "address"
        },
        {
          "internalType": "uint256",
          "name": "",
          "type": "uint256"
        }
      ],
      "name": "shares",
      "outputs": [
        {
          "internalType": "uint256",
          "name": "",
          "type": "uint256"
        }
      ],
      "stateMutability": "view",
      "type": "function"
    },
    {
      "inputs": [],
      "name": "token",
      "outputs": [
        {
          "internalType": "contract IERC20",
          "name": "",
          "type": "address"
        }
      ],
      "stateMutability": "view",
      "type": "function"
    },
    {
      "inputs": [
        {
          "internalType": "address",
          "name": "newOwner",
          "type": "address"
        }
      ],
      "name": "transferOwnership",
      "outputs": [],
      "stateMutability": "nonpayable",
      "type": "function"
    }
  ],
  "bytecode": "0x608060405234801561001057600080fd5b506040516117ad3803806117ad83398101604081905261002f916100d4565b338061005557604051631e4fbdf760e01b81526000600482015260240160405180910390fd5b61005e81610084565b50600380546001600160a01b0319166001600160a01b0392909216919091179055610104565b600080546001600160a01b038381166001600160a01b0319831681178455604051919092169283917f8be0079c531659141344cd1fd0a4f28419497f9722a3daafe3b4186f6b6457e09190a35050565b6000602082840312156100e657600080fd5b81516001600160a01b03811681146100fd57600080fd5b9392505050565b61169a806101136000396000f3fe608060405234801561001057600080fd5b50600436106100f55760003560e01c80639794131611610097578063df55406e11610066578063df55406e1461023d578063ec97908214610250578063f2fde38b14610259578063fc0c546a1461026c57600080fd5b806397941316146101e5578063b1283e7714610206578063be37822814610219578063c2cd4a071461022257600080fd5b8063715018a6116100d3578063715018a61461015257806376e004061461015a5780637f1a10da1461016d5780638da5cb5b146101c057600080fd5b806339b46372146100fa5780633ec791931461010f578063677bd9ff1461013f575b600080fd5b61010d610108366004611113565b61027f565b005b61012261011d36600461114b565b610515565b6040516101369897969594939291906111aa565b60405180910390f35b61010d61014d36600461114b565b610794565b61010d610b81565b61010d6101683660046112ba565b610b95565b6101ab61017b366004611366565b60009182526004602090815260408084206001600160a01b03939093168452919052902080546001909101549091565b60408051928352602083019190915201610136565b6000546001600160a01b03165b6040516001600160a01b039091168152602001610136565b6101f86101f3366004611392565b610d1e565b604051908152602001610136565b61012261021436600461114b565b610d50565b6101f86103e881565b6101cd73bd01d1d9c9f7475641092a6387ffe9f07237a2e381565b61010d61024b3660046113c7565b610f2f565b6101f860025481565b61010d6102673660046113fd565b61104a565b6003546101cd906001600160a01b031681565b6000838152600160205260409020600781015460ff16156102dc5760405162461bcd60e51b815260206004820152601260248201527113585c9ad95d081a5cc81c995cdbdb1d995960721b60448201526064015b60405180910390fd5b806003015442106103225760405162461bcd60e51b815260206004820152601060248201526f13585c9ad95d081a185cc8195b99195960821b60448201526064016102d3565b600082116103725760405162461bcd60e51b815260206004820152601d60248201527f416d6f756e74206d7573742062652067726561746572207468616e203000000060448201526064016102d3565b6003546040516323b872dd60e01b8152336004820152306024820152604481018490526001600160a01b03909116906323b872dd906064016020604051808303816000875af11580156103c9573d6000803e3d6000fd5b505050506040513d601f19601f820116820180604052508101906103ed919061141f565b6104315760405162461bcd60e51b8152602060048201526015602482015274151bdad95b881d1c985b9cd9995c8819985a5b1959605a1b60448201526064016102d3565b8215610484578181600501600082825461044b9190611452565b9091555050600084815260046020908152604080832033845290915281208054849290610479908490611452565b909155506104d09050565b818160060160008282546104989190611452565b909155505060008481526004602090815260408083203384529091529020829060010160008282546104ca9190611452565b90915550505b60408051841515815260208101849052339186917fb3a1ddef05fa52ff8a462662e00f5fd54a3b35e85417cafcaa671fb30434bd11910160405180910390a350505050565b6060806060600080600080600080600160008b8152602001908152602001600020604051806101000160405290816000820180546105529061146b565b80601f016020809104026020016040519081016040528092919081815260200182805461057e9061146b565b80156105cb5780601f106105a0576101008083540402835291602001916105cb565b820191906000526020600020905b8154815290600101906020018083116105ae57829003601f168201915b505050505081526020016001820180546105e49061146b565b80601f01602080910402602001604051908101604052809291908181526020018280546106109061146b565b801561065d5780601f106106325761010080835404028352916020019161065d565b820191906000526020600020905b81548152906001019060200180831161064057829003601f168201915b505050505081526020016002820180546106769061146b565b80601f01602080910402602001604051908101604052809291908181526020018280546106a29061146b565b80156106ef5780601f106106c4576101008083540402835291602001916106ef565b820191906000526020600020905b8154815290600101906020018083116106d257829003601f168201915b50505050508152602001600382015481526020016004820160009054906101000a900460ff1660ff1660ff16815260200160058201548152602001600682015481526020016007820160009054906101000a900460ff1615151515815250509050806000015181602001518260400151836060015184608001518560a001518660c001518760e001519850985098509850985098509850985050919395975091939597565b6000818152600160205260409020600781015460ff166107ec5760405162461bcd60e51b815260206004820152601360248201527213585c9ad95d081b9bdd081c995cdbdb1d9959606a1b60448201526064016102d3565b600481015460ff1660000361083c5760405162461bcd60e51b815260206004820152601660248201527513585c9ad95d081bdd5d18dbdb59481b9bdd081cd95d60521b60448201526064016102d3565b60008281526004602090815260408083203384529091528082208151808301928390529160029082845b81548152602001906001019080831161086657505050600485015492935060009260ff16600114915061089f90505760208201516108a2565b81515b9050600081116108e85760405162461bcd60e51b81526020600482015260116024820152704e6f2077696e6e696e672073686172657360781b60448201526064016102d3565b600483015460009060ff1660011461090457836006015461090a565b83600501545b90506000846006015485600501546109229190611452565b905060008261093185846114a5565b61093b91906114bc565b9050600061271061094e6103e8846114a5565b61095891906114bc565b9050600061096682846114de565b600489015490915060ff166001036109975760008981526004602090815260408083203384529091528120556109b5565b60008981526004602090815260408083203384529091528120600101555b60035460405163a9059cbb60e01b8152336004820152602481018390526001600160a01b039091169063a9059cbb906044016020604051808303816000875af1158015610a06573d6000803e3d6000fd5b505050506040513d601f19601f82011682018060405250810190610a2a919061141f565b610a6e5760405162461bcd60e51b8152602060048201526015602482015274151bdad95b881d1c985b9cd9995c8819985a5b1959605a1b60448201526064016102d3565b8115610b3f5760035460405163a9059cbb60e01b815273bd01d1d9c9f7475641092a6387ffe9f07237a2e36004820152602481018490526001600160a01b039091169063a9059cbb906044016020604051808303816000875af1158015610ad9573d6000803e3d6000fd5b505050506040513d601f19601f82011682018060405250810190610afd919061141f565b610b3f5760405162461bcd60e51b8152602060048201526013602482015272119959481d1c985b9cd9995c8819985a5b1959606a1b60448201526064016102d3565b60405181815233908a907f5380cf6fe903b40c6d5a9e0dfbca2f3a423f0a21520b4d5947ed5169bdba946d9060200160405180910390a3505050505050505050565b610b89611088565b610b9360006110b5565b565b610b9d611088565b428111610bec5760405162461bcd60e51b815260206004820152601e60248201527f456e642074696d65206d75737420626520696e2074686520667574757265000060448201526064016102d3565b604080516101008101825285815260208082018690528183018590526060820184905260006080830181905260a0830181905260c0830181905260e08301819052600254815260019091529190912081518190610c499082611540565b5060208201516001820190610c5e9082611540565b5060408201516002820190610c739082611540565b5060608201516003820155608082015160048201805460ff90921660ff1992831617905560a0830151600583015560c0830151600683015560e09092015160079091018054911515919092161790556002546040517fa2d123850430ad736c7d9b724e8f4ac57a15f478145540d7d4f9e01af14147f690610cfb908790879087908790611600565b60405180910390a260028054906000610d138361164b565b919050555050505050565b60046020528260005260406000206020528160005260406000208160028110610d4657600080fd5b0154925083915050565b600160205260009081526040902080548190610d6b9061146b565b80601f0160208091040260200160405190810160405280929190818152602001828054610d979061146b565b8015610de45780601f10610db957610100808354040283529160200191610de4565b820191906000526020600020905b815481529060010190602001808311610dc757829003601f168201915b505050505090806001018054610df99061146b565b80601f0160208091040260200160405190810160405280929190818152602001828054610e259061146b565b8015610e725780601f10610e4757610100808354040283529160200191610e72565b820191906000526020600020905b815481529060010190602001808311610e5557829003601f168201915b505050505090806002018054610e879061146b565b80601f0160208091040260200160405190810160405280929190818152602001828054610eb39061146b565b8015610f005780601f10610ed557610100808354040283529160200191610f00565b820191906000526020600020905b815481529060010190602001808311610ee357829003601f168201915b50505060038401546004850154600586015460068701546007909701549596929560ff92831695509093501688565b610f37611088565b6000828152600160205260409020600781015460ff1615610f9a5760405162461bcd60e51b815260206004820152601760248201527f4d61726b657420616c7265616479207265736f6c76656400000000000000000060448201526064016102d3565b8160ff1660011480610faf57508160ff166002145b610fed5760405162461bcd60e51b815260206004820152600f60248201526e496e76616c6964206f7574636f6d6560881b60448201526064016102d3565b60048101805460ff841660ff199182168117909255600783018054909116600117905560405190815283907f739f283563fb51ab6b89ee95d937b2e63a6cfcb83c385dbebb629f9d97bd43e69060200160405180910390a2505050565b611052611088565b6001600160a01b03811661107c57604051631e4fbdf760e01b8152600060048201526024016102d3565b611085816110b5565b50565b6000546001600160a01b03163314610b935760405163118cdaa760e01b81523360048201526024016102d3565b600080546001600160a01b038381166001600160a01b0319831681178455604051919092169283917f8be0079c531659141344cd1fd0a4f28419497f9722a3daafe3b4186f6b6457e09190a35050565b801515811461108557600080fd5b60008060006060848603121561112857600080fd5b83359250602084013561113a81611105565b929592945050506040919091013590565b60006020828403121561115d57600080fd5b5035919050565b6000815180845260005b8181101561118a5760208185018101518683018201520161116e565b506000602082860101526020601f19601f83011685010191505092915050565b60006101008083526111be8184018c611164565b905082810360208401526111d2818b611164565b905082810360408401526111e6818a611164565b6060840198909852505060ff94909416608085015260a084019290925260c0830152151560e0909101529392505050565b634e487b7160e01b600052604160045260246000fd5b600082601f83011261123e57600080fd5b813567ffffffffffffffff8082111561125957611259611217565b604051601f8301601f19908116603f0116810190828211818310171561128157611281611217565b8160405283815286602085880101111561129a57600080fd5b836020870160208301376000602085830101528094505050505092915050565b600080600080608085870312156112d057600080fd5b843567ffffffffffffffff808211156112e857600080fd5b6112f48883890161122d565b9550602087013591508082111561130a57600080fd5b6113168883890161122d565b9450604087013591508082111561132c57600080fd5b506113398782880161122d565b949793965093946060013593505050565b80356001600160a01b038116811461136157600080fd5b919050565b6000806040838503121561137957600080fd5b823591506113896020840161134a565b90509250929050565b6000806000606084860312156113a757600080fd5b833592506113b76020850161134a565b9150604084013590509250925092565b600080604083850312156113da57600080fd5b82359150602083013560ff811681146113f257600080fd5b809150509250929050565b60006020828403121561140f57600080fd5b6114188261134a565b9392505050565b60006020828403121561143157600080fd5b815161141881611105565b634e487b7160e01b600052601160045260246000fd5b808201808211156114655761146561143c565b92915050565b600181811c9082168061147f57607f821691505b60208210810361149f57634e487b7160e01b600052602260045260246000fd5b50919050565b80820281158282048414176114655761146561143c565b6000826114d957634e487b7160e01b600052601260045260246000fd5b500490565b818103818111156114655761146561143c565b601f82111561153b57600081815260208120601f850160051c810160208610156115185750805b601f850160051c820191505b8181101561153757828155600101611524565b5050505b505050565b815167ffffffffffffffff81111561155a5761155a611217565b61156e81611568845461146b565b846114f1565b602080601f8311600181146115a3576000841561158b5750858301515b600019600386901b1c1916600185901b178555611537565b600085815260208120601f198616915b828110156115d2578886015182559484019460019091019084016115b3565b50858210156115f05787850151600019600388901b60f8161c191681555b5050505050600190811b01905550565b6080815260006116136080830187611164565b82810360208401526116258187611164565b905082810360408401526116398186611164565b91505082606083015295945050505050565b60006001820161165d5761165d61143c565b506001019056fea2646970667358221220eea0b03523e9f928ed29f91201f23a1f1eba1f5e82554fd49b97e90c4d74e9c364736f6c63430008140033",
  "linkReferences": {},
  "deployedLinkReferences": {}
}